:0300000002037880
:0C037800787FE4F6D8FD7581280203BFF1
:03000300020612E0
:0C099D00020FFFFF0212FFFF020CFFFF21
:10095900438E805389F0758A20758CD1C28DD28CD3
:03096900D2A922EE
:03000B0002072FBA
:10072F00C0E0C0D0C3E50C648094804008050DE59F
:10073F000D7002050CC3E512648094804008051308
:10074F00E51370020512C3E50F648094804008051D
:0C075F0010E5107002050FD0D0D0E03281
:10090000EFF4FF1392C0EFA2E192ECA2E292EDA20B
:07091000E392EEA2E492EF76
:0109170022BD
:1006AC00E4FF30B2047E0180027E00EE420730B3DC
:1006BC00047E0280027E00EE420730B4047E048089
:1006CC00027E00EE420730C8047E0880027E00EEF7
:1006DC00420730C9047E1080027E00EE4207EFF420
:0306EC00541FFF99
:0106EF0022E8
:10091800759850438E40538EFE53890F758BC7755B
:070928008DFEC2ABD28E224E
:10040400C297C296C2C7C291C2EAC2E9C286C28575
:10041400C284C283C280C2C6C2FEC2FDC2A6C2A535
:10042400C2A2C2A1D295D294D290D2EBD2E8D28702
:10043400D2CBD2CAD282D281D2C5D2FFD2FCD2A729
:10044400D2A4D2A3D2A0D2C4D2B2D2B3D2B4D2C88C
:10045400D2C9D2B6D2B5C293C2CCE4F594F593F521
:1004640092F591F596F595F5B2F5B1F5B4F5B3F5C8
:0C047400CAF5C9F5CCF5CBF5E2F5E122A4
:0600E800F8E614FF7D01A3
:1000EE00EFB41200400302019F9000FEF82828731F
:1000FE0002013402013A02014002014602014C02A1
:10010E00015202015802015E02016402016A0201FB
:10011E007002017602017C02018202018802018EC8
:10012E0002019402019AED24FF929722ED24FF9290
:10013E009622ED24FF92C722ED24FF929122ED2408
:10014E00FF92EA22ED24FF92E922ED24FF9286220D
:10015E00ED24FF928522ED24FF928422ED24FF925E
:10016E008322ED24FF928022ED24FF92C622ED24FD
:10017E00FF92FE22ED24FF92FD22ED24FF92A62295
:10018E00ED24FF92A522ED24FF92A222ED24FF92F0
:02019E00A1229C
:100026001208DD74182BF8E6FF1208DD74192BF898
:0C003600E6FF1208DD74192BF8E614FF39
:10004200EFB4120040030200D3900052F828287344
:1000520002008802008C02009002009402009802C2
:10006200009C0200A00200A40200A80200AC020050
:10007200B00200B40200B80200BC0200C00200C418
:100082000200C80200CCA2958042A294803EA290B7
:10009200803AA2EB8036A2E88032A287802EA2CBE1
:1000A200802AA2CA8026A2828022A281801EA2C5A4
:1000B200801AA2FF8016A2FC8012A2A7800EA2A420
:1000C200800AA2A38006A2A08002A2C4E433FE801A
:1000D200027E01E50BB4010BEE70047F0180027F0A
:0500E20000AE07AF06AF
:0100E70022F6
:0607D200F8E6FF1208DD4D
:1007D800E4FCE4FDFBEC75F008A42BFF120042A832
:1007E80003EF088002C333D8FC42050BBB08E6744C
:0907F800082CF8A6050CBC03D97D
:0108010022D4
:10000E00E4FE74182EF8E6FD74172EF8A6050EBE43
:04001E000FF08F262A
:0100220022BB
:0300230002076B66
:10076B00C0E0C0D075D000C000C005C006C00730C7
:10077B009907C299751100B29330980CC298B29335
:10078B00859914AF1412000ED007D006D005D000F7
:05079B00D0D0D0E032D7
:1008CB001208DD74182DF8E6FF1208DD74192DF8E7
:0208DB00E6FF36
:0A08DD00E51170FC7511018F9922DE
:1006120012040412091812095943BA80D2ACD2AF9B
:1006220012096CE4FFFE12089112088B8F0BE5167B
:10063200F47021E50BF4701CFFFE1208E7E4FDFFE5
:10064200FE1208B07D011208ACE4FFFE12089112FE
:0F065200088B8F0B75C12775C1371209B680F859
:0309AA001209AD82
:0809AD007F0C7EA9DEFEDFFCD9
:0109B500221F
:10096C00E4FDFC1209AD0DBD00010CBC03F5BDE8A6
:01097C00F288
:01097D002257
:10097E00E4FDFC1209AD0DBD00010CBC01F5BDF48A
:01098E00F276
:01098F002245
:1007A0007D01AF151200EE7F2C7E011207B9E4FD2A
:0907B000AF151200EE7F327E004D
:0407B900AD07AC06D6
:1007BD00E4FBFAC3EB9DEA9C500A1209AD0BBB009A
:0407CD00010A80EFAE
:0107D1002205
:1001A00020B60FE50DB4FF0AE50CB4FF05E4F50C2D
:1001B000F50D30B610E50DB4FE0BE50CB4FF06747A
:1001C000FFF50CF50DD3E50D94F4E50C64809481F6
:1001D000400C750CFF750DFE20B60312092F20B5DB
:1001E0000FE513B4FF0AE512B4FF05E4F512F513A9
:1001F00030B510E513B4FE0BE512B4FF0674FFF53D
:1002000012F513D3E51394B8E5126480948B40394A
:100210007512FF7513FE20B530E4FFFE1208E712D9
:1002200006ACAD07E4FFFE1208B0AD0B1208ACE45B
:10023000FFFE12089112088B8F0B7E007F107D004D
:0A0240007B007A00791712085F2294
:0B09B6001201A0AF1612090002024A55
:10024A00E4F52774172527F8E6FFC39480407BE579
:10025A0027940C5075E5162401FDE433FC74182527
:10026A0027F8E6FE6D7001EC7060EF6EFF741925D9
:10027A0027F8E66FFF741A2527F8E66FFF741B2527
:10028A0027F8E66F7044D2CCAF27120480AF27124A
:10029A0006F0AF27120661AF271205C1AF27120277
:1002AA00E1AF271204FAAF27120832AF2712056A04
:1002BA00AF271208027E007F107D007B007A00794A
:1002CA001712085FE51170FCC2CC0527E527C39415
:0602DA0010500302024D6A
:0102E00022FB
:10048000A907741729F8E6648A706E741929120096
:10049000E87F907E011207B9741929F8E614FFE489
:1004A000FD1200EE7F647E001207B97F8A1208DD1C
:1004B000741829F8E6FF1208DD741929F8E6FF120E
:1004C00008DD74192912003EEF60177F111208DD54
:1004D000741829F8E6648AFF741929F8E66F641124
:1004E0008013E4FF1208DD741829F8E6648AFF74AB
:0A04F0001929F8E66FFF1208DD225B
:10092F00E4F5151207A075C1370515C3E5156480E9
:05093F00949240EF223C
:10094400E4F5151207A075C1370515C3E5156480D4
:05095400949240EF2227
:1006F000A907741729F8E6649D70331209447F9D99
:100700001208DD7418291207D2E4FF1208DDAF0ABF
:100710001208DDAF091208DDAF081208DD741829D0
:0F072000F8E6649D650A65096508FF1208DD2289
:10066100AB0774172BF8E6649A703F74192B1200CC
:10067100E812097E7F9A120026EF60177F11120897
:10068100DD74182BF8E6649AFF74192BF8E66F6491
:10069100118013E4FF1208DD74182BF8E6649AFF49
:0B06A10074192BF8E66FFF1208DD2231
:1005C100AB0774172BF8E6649B704574192BF8E69A
:1005D10014FFE4FD1200EE12097E7F9B120026EF4C
:1005E10060177F111208DD74182BF8E6649BFF7405
:1005F100192BF8E66F64118013E4FF1208DD7418FB
:100601002BF8E6649BFF74192BF8E66FFF1208DDE7
:0106110022C6
:1002E100AA0774172AF8E6648060030203771209EB
:1002F100AD74192AF8E670307F801208DD74182A6F
:100301001207D2AF0A1208DDAF091208DDAF0812D9
:1003110008DD7F331208DD74182AF8E66480650A67
:10032100650965086433804A7F801208DD74182AE4
:10033100F8E6FF1208DD74192AF8E6FF1208DD74E9
:10034100192A12003EEF60177F111208DD74182A76
:10035100F8E66480FF74192AF8E66F64118013E4EB
:10036100FF1208DD74182AF8E66480FF74192AF870
:07037100E66FFF1208DD2218
:1004FA00AD0774172DF8E664DD70641209AA7FDD72
:10050A001208CB90FDE0E0FF1208DDA3E0FF12081D
:10051A00DDA3E0FF1208DDA3E0FF1208DDA3E0FF80
:10052A001208DDA3E0FF1208DDA3E0FF1208DD7464
:10053A00182DF8E664DDFF74192DF8E66FFF90FDBB
:10054A00E0E06FFFA3E06FFFA3E06FFFA3E06FFFA0
:10055A00A3E06FFFA3E06FFFA3E06FFF1208DD22A5
:10083200AD0774172DF8E664DE70211209AA7FDE77
:100842001208DD74181208D9E4FF1208DD0F12082D
:0D085200DD74182DF8E664DFFF1208DD22CA
:10056A008F2874172FF8E664DF704B1209AD120951
:10057A00ADFFFE1208E7AD16E4FFFE1208B0741ACA
:10058A002528F8E6FD1208ACE4FFFE1208911208CD
:10059A008B8F0B7FDF1208DD74182528F8E6FF120F
:1005AA0008DD7F111208DD1208DD74182528F8E627
:0705BA0064DFFF1208DD22DF
:10080200AD0774172DF8E664E170241209AD1209E0
:10081200AD7FE11208CBAF0B1208DD74182DF8E69C
:1008220064E1FF74192DF8E66F650BFF1208DD22F3
:0D099000E4F5C7F5C5F5C675C380F5C422B2
:06088B008F167F017E00C4
:1008910075C78075F50C75C5018FC4EEFF8FC375E3
:0B08A100C65A75C6A500AFC202099040
:0408AC007F017E004A
:1008B00075C78075F50C75C5028FC4EEFF8FC38DAB
:0B08C000C275C65A75C6A5000209905B
:1008E70075C78075F50C75C5038FC4EEFF8FC3758B
:0908F700C65A75C6A5000209905D
:10038400020003E493A3F8E493A34003F68001F28C
:1003940008DFF48029E493A3F85407240CC8C3337A
:1003A400C4540F4420C8834004F456800146F6DF49
:1003B400E4800B010204081020408090099DE47E33
:1003C400019360BCA3FF543F30E509541FFEE4933E
:1003D400A360010ECF54C025E060A840B8E493A305
:1003E400FAE493A3F8E493A3C8C582C8CAC583CA30
:1003F400F0A3C8C582C8CAC583CADFE9DEE780BEE8
:0109A900004D
:10085F00EF4E6012EF60010EEDBB010B89828A83B0
:10086F00F0A3DFFCDEFA2289F05007F709DFFCA9BD
:0C087F00F022BBFEFCF309DFFCA9F02214
:00000001FF
